{
  "_format": "hh-sol-artifact-1",
  "contractName": "InvoiceFinancing",
  "sourceName": "contracts/InvoiceFinancing.sol",
  "abi": [
    {
      "inputs": [
        {
          "internalType": "address",
          "name": "_invoiceNFTAddress",
          "type": "address"
        }
      ],
      "stateMutability": "nonpayable",
      "type": "constructor"
    },
    {
      "anonymous": false,
      "inputs": [
        {
          "indexed": true,
          "internalType": "uint256",
          "name": "tokenId",
          "type": "uint256"
        },
        {
          "indexed": false,
          "internalType": "address",
          "name": "investor",
          "type": "address"
        },
        {
          "indexed": false,
          "internalType": "address",
          "name": "msme",
          "type": "address"
        }
      ],
      "name": "FinancingAccepted",
      "type": "event"
    },
    {
      "anonymous": false,
      "inputs": [
        {
          "indexed": true,
          "internalType": "uint256",
          "name": "tokenId",
          "type": "uint256"
        },
        {
          "indexed": false,
          "internalType": "address",
          "name": "investor",
          "type": "address"
        },
        {
          "indexed": false,
          "internalType": "uint256",
          "name": "amount",
          "type": "uint256"
        },
        {
          "indexed": false,
          "internalType": "uint256",
          "name": "interest",
          "type": "uint256"
        }
      ],
      "name": "FinancingOffered",
      "type": "event"
    },
    {
      "anonymous": false,
      "inputs": [
        {
          "indexed": true,
          "internalType": "uint256",
          "name": "tokenId",
          "type": "uint256"
        },
        {
          "indexed": false,
          "internalType": "address",
          "name": "msme",
          "type": "address"
        }
      ],
      "name": "PaymentDefault",
      "type": "event"
    },
    {
      "anonymous": false,
      "inputs": [
        {
          "indexed": true,
          "internalType": "uint256",
          "name": "tokenId",
          "type": "uint256"
        },
        {
          "indexed": false,
          "internalType": "address",
          "name": "payer",
          "type": "address"
        },
        {
          "indexed": false,
          "internalType": "uint256",
          "name": "amount",
          "type": "uint256"
        }
      ],
      "name": "PaymentSettled",
      "type": "event"
    },
    {
      "inputs": [
        {
          "internalType": "uint256",
          "name": "tokenId",
          "type": "uint256"
        },
        {
          "internalType": "uint256",
          "name": "offerIndex",
          "type": "uint256"
        }
      ],
      "name": "acceptFinancing",
      "outputs": [],
      "stateMutability": "nonpayable",
      "type": "function"
    },
    {
      "inputs": [
        {
          "internalType": "address",
          "name": "investor",
          "type": "address"
        }
      ],
      "name": "getInvestorPortfolio",
      "outputs": [
        {
          "internalType": "uint256[]",
          "name": "",
          "type": "uint256[]"
        }
      ],
      "stateMutability": "view",
      "type": "function"
    },
    {
      "inputs": [
        {
          "internalType": "address",
          "name": "msme",
          "type": "address"
        }
      ],
      "name": "getMSMEInvoices",
      "outputs": [
        {
          "internalType": "uint256[]",
          "name": "",
          "type": "uint256[]"
        }
      ],
      "stateMutability": "view",
      "type": "function"
    },
    {
      "inputs": [
        {
          "internalType": "uint256",
          "name": "tokenId",
          "type": "uint256"
        }
      ],
      "name": "getOffers",
      "outputs": [
        {
          "components": [
            {
              "internalType": "uint256",
              "name": "tokenId",
              "type": "uint256"
            },
            {
              "internalType": "uint256",
              "name": "financingAmount",
              "type": "uint256"
            },
            {
              "internalType": "uint256",
              "name": "interestRate",
              "type": "uint256"
            },
            {
              "internalType": "address",
              "name": "investor",
              "type": "address"
            },
            {
              "internalType": "bool",
              "name": "accepted",
              "type": "bool"
            },
            {
              "internalType": "uint256",
              "name": "timestamp",
              "type": "uint256"
            }
          ],
          "internalType": "struct InvoiceFinancing.FinancingOffer[]",
          "name": "",
          "type": "tuple[]"
        }
      ],
      "stateMutability": "view",
      "type": "function"
    },
    {
      "inputs": [
        {
          "internalType": "uint256",
          "name": "tokenId",
          "type": "uint256"
        }
      ],
      "name": "getPaymentSchedule",
      "outputs": [
        {
          "components": [
            {
              "internalType": "uint256",
              "name": "tokenId",
              "type": "uint256"
            },
            {
              "internalType": "uint256",
              "name": "principal",
              "type": "uint256"
            },
            {
              "internalType": "uint256",
              "name": "interest",
              "type": "uint256"
            },
            {
              "internalType": "uint256",
              "name": "totalDue",
              "type": "uint256"
            },
            {
              "internalType": "uint256",
              "name": "dueDate",
              "type": "uint256"
            },
            {
              "internalType": "bool",
              "name": "paid",
              "type": "bool"
            }
          ],
          "internalType": "struct InvoiceFinancing.PaymentSchedule",
          "name": "",
          "type": "tuple"
        }
      ],
      "stateMutability": "view",
      "type": "function"
    },
    {
      "inputs": [
        {
          "internalType": "address",
          "name": "",
          "type": "address"
        },
        {
          "internalType": "uint256",
          "name": "",
          "type": "uint256"
        }
      ],
      "name": "investorPortfolio",
      "outputs": [
        {
          "internalType": "uint256",
          "name": "",
          "type": "uint256"
        }
      ],
      "stateMutability": "view",
      "type": "function"
    },
    {
      "inputs": [
        {
          "internalType": "uint256",
          "name": "",
          "type": "uint256"
        }
      ],
      "name": "invoiceFinanced",
      "outputs": [
        {
          "internalType": "bool",
          "name": "",
          "type": "bool"
        }
      ],
      "stateMutability": "view",
      "type": "function"
    },
    {
      "inputs": [],
      "name": "invoiceNFT",
      "outputs": [
        {
          "internalType": "contract InvoiceNFT",
          "name": "",
          "type": "address"
        }
      ],
      "stateMutability": "view",
      "type": "function"
    },
    {
      "inputs": [
        {
          "internalType": "address",
          "name": "",
          "type": "address"
        },
        {
          "internalType": "uint256",
          "name": "",
          "type": "uint256"
        }
      ],
      "name": "msmeInvoices",
      "outputs": [
        {
          "internalType": "uint256",
          "name": "",
          "type": "uint256"
        }
      ],
      "stateMutability": "view",
      "type": "function"
    },
    {
      "inputs": [
        {
          "internalType": "uint256",
          "name": "tokenId",
          "type": "uint256"
        },
        {
          "internalType": "uint256",
          "name": "financingAmount",
          "type": "uint256"
        },
        {
          "internalType": "uint256",
          "name": "interestRate",
          "type": "uint256"
        }
      ],
      "name": "offerFinancing",
      "outputs": [],
      "stateMutability": "payable",
      "type": "function"
    },
    {
      "inputs": [
        {
          "internalType": "uint256",
          "name": "",
          "type": "uint256"
        },
        {
          "internalType": "uint256",
          "name": "",
          "type": "uint256"
        }
      ],
      "name": "offers",
      "outputs": [
        {
          "internalType": "uint256",
          "name": "tokenId",
          "type": "uint256"
        },
        {
          "internalType": "uint256",
          "name": "financingAmount",
          "type": "uint256"
        },
        {
          "internalType": "uint256",
          "name": "interestRate",
          "type": "uint256"
        },
        {
          "internalType": "address",
          "name": "investor",
          "type": "address"
        },
        {
          "internalType": "bool",
          "name": "accepted",
          "type": "bool"
        },
        {
          "internalType": "uint256",
          "name": "timestamp",
          "type": "uint256"
        }
      ],
      "stateMutability": "view",
      "type": "function"
    },
    {
      "inputs": [
        {
          "internalType": "uint256",
          "name": "",
          "type": "uint256"
        }
      ],
      "name": "paymentSchedules",
      "outputs": [
        {
          "internalType": "uint256",
          "name": "tokenId",
          "type": "uint256"
        },
        {
          "internalType": "uint256",
          "name": "principal",
          "type": "uint256"
        },
        {
          "internalType": "uint256",
          "name": "interest",
          "type": "uint256"
        },
        {
          "internalType": "uint256",
          "name": "totalDue",
          "type": "uint256"
        },
        {
          "internalType": "uint256",
          "name": "dueDate",
          "type": "uint256"
        },
        {
          "internalType": "bool",
          "name": "paid",
          "type": "bool"
        }
      ],
      "stateMutability": "view",
      "type": "function"
    },
    {
      "inputs": [
        {
          "internalType": "uint256",
          "name": "tokenId",
          "type": "uint256"
        }
      ],
      "name": "settlePayment",
      "outputs": [],
      "stateMutability": "payable",
      "type": "function"
    }
  ],
  "bytecode": "0x608060405234801561001057600080fd5b5060405161158d38038061158d83398101604081905261002f91610059565b6001600081905580546001600160a01b0319166001600160a01b0392909216919091179055610089565b60006020828403121561006b57600080fd5b81516001600160a01b038116811461008257600080fd5b9392505050565b6114f5806100986000396000f3fe6080604052600436106100c25760003560e01c8063a18c18561161007f578063bc63c17111610059578063bc63c171146102ce578063dfa49e6f1461033c578063e0d649c414610369578063e3737ece1461037c57600080fd5b8063a18c1856146101df578063a8b517961461021f578063ba0ca532146102a157600080fd5b806320478b6a146100c757806347e22a84146100fa5780634bb6f06d1461011a5780634d03a9a5146101525780636d5c697d146101aa5780639f20c4f7146101cc575b600080fd5b3480156100d357600080fd5b506100e76100e23660046110ba565b61039c565b6040519081526020015b60405180910390f35b34801561010657600080fd5b506100e76101153660046110ba565b6103cd565b34801561012657600080fd5b5060015461013a906001600160a01b031681565b6040516001600160a01b0390911681526020016100f1565b34801561015e57600080fd5b5061017261016d3660046110e6565b6103e9565b604080519687526020870195909552938501929092526001600160a01b031660608401521515608083015260a082015260c0016100f1565b3480156101b657600080fd5b506101ca6101c53660046110e6565b61044d565b005b6101ca6101da366004611108565b610826565b3480156101eb57600080fd5b5061020f6101fa366004611108565b60036020526000908152604090205460ff1681565b60405190151581526020016100f1565b34801561022b57600080fd5b5061027261023a366004611108565b600460208190526000918252604090912080546001820154600283015460038401549484015460059094015492949193909260ff1686565b6040805196875260208701959095529385019290925260608401526080830152151560a082015260c0016100f1565b3480156102ad57600080fd5b506102c16102bc366004611121565b610aeb565b6040516100f19190611145565b3480156102da57600080fd5b506102ee6102e9366004611108565b610b57565b6040516100f19190600060c082019050825182526020830151602083015260408301516040830152606083015160608301526080830151608083015260a0830151151560a083015292915050565b34801561034857600080fd5b5061035c610357366004611108565b610bef565b6040516100f19190611189565b6101ca61037736600461120c565b610ca8565b34801561038857600080fd5b506102c1610397366004611121565b610fe2565b600560205281600052604060002081815481106103b857600080fd5b90600052602060002001600091509150505481565b600660205281600052604060002081815481106103b857600080fd5b6002602052816000526040600020818154811061040557600080fd5b600091825260209091206005909102018054600182015460028301546003840154600490940154929550909350916001600160a01b03811691600160a01b90910460ff169086565b61045561104c565b60008281526002602052604090205481106104ad5760405162461bcd60e51b8152602060048201526013602482015272092dcecc2d8d2c840decccccae440d2dcc8caf606b1b60448201526064015b60405180910390fd5b60008281526002602052604081208054839081106104cd576104cd611238565b906000526020600020906005020190508060030160149054906101000a900460ff16156105355760405162461bcd60e51b815260206004820152601660248201527513d999995c88185b1c9958591e481858d8d95c1d195960521b60448201526064016104a4565b60015460405163484d384560e11b81526004810185905260009182916001600160a01b039091169063909a708a90602401600060405180830381865afa158015610583573d6000803e3d6000fd5b505050506040513d6000823e601f3d908101601f191682016040526105ab919081019061132a565b50505050505050935050509150816001600160a01b0316336001600160a01b0316146106105760405162461bcd60e51b815260206004820152601460248201527313db9b1e481354d3514818d85b881858d8d95c1d60621b60448201526064016104a4565b60018301546040516001600160a01b0384169180156108fc02916000818181858888f19350505050158015610649573d6000803e3d6000fd5b5060008581526003602081905260408220805460ff191660011790558401805460ff60a01b1916600160a01b17905563bbf81e006106874284611441565b8560020154866001015461069b919061145a565b6106a5919061145a565b6106af9190611471565b905060008185600101546106c39190611493565b90506040518060c00160405280888152602001866001015481526020018381526020018281526020018481526020016000151581525060046000898152602001908152602001600020600082015181600001556020820151816001015560408201518160020155606082015181600301556080820151816004015560a08201518160050160006101000a81548160ff02191690831515021790555090505060066000856001600160a01b03166001600160a01b03168152602001908152602001600020879080600181540180825580915050600190039060005260206000200160009091909190915055867f1b202f81bf55a7744fa87ebbf7e3f8f043020405ddb997a42f82212319d2e6ab8660030160009054906101000a90046001600160a01b03168660405161080b9291906001600160a01b0392831681529116602082015260400190565b60405180910390a250505050506108226001600055565b5050565b61082e61104c565b60008181526003602052604090205460ff166108835760405162461bcd60e51b8152602060048201526014602482015273125b9d9bda58d9481b9bdd08199a5b985b98d95960621b60448201526064016104a4565b6000818152600460205260409020600581015460ff16156108d85760405162461bcd60e51b815260206004820152600f60248201526e105b1c9958591e481cd95d1d1b1959608a1b60448201526064016104a4565b80600301543410156109235760405162461bcd60e51b8152602060048201526014602482015273125b9cdd59999a58da595b9d081c185e5b595b9d60621b60448201526064016104a4565b600082815260026020526040812090805b82548110156109bb5782818154811061094f5761094f611238565b906000526020600020906005020160030160149054906101000a900460ff16156109a95782818154811061098557610985611238565b60009182526020909120600360059092020101546001600160a01b031691506109bb565b806109b3816114a6565b915050610934565b506001600160a01b038116610a065760405162461bcd60e51b8152602060048201526011602482015270139bc81a5b9d995cdd1bdc88199bdd5b99607a1b60448201526064016104a4565b60038301546040516001600160a01b0383169180156108fc02916000818181858888f19350505050158015610a3f573d6000803e3d6000fd5b508260030154341115610a8b57600383015433906108fc90610a619034611441565b6040518115909202916000818181858888f19350505050158015610a89573d6000803e3d6000fd5b505b60058301805460ff19166001179055600383015460408051338152602081019290925285917ffc8b977f1c80a8e9ce98d4ee92ece16b551343d056ff17b6ab738516c39fc440910160405180910390a2505050610ae86001600055565b50565b6001600160a01b038116600090815260056020908152604091829020805483518184028101840190945280845260609392830182828015610b4b57602002820191906000526020600020905b815481526020019060010190808311610b37575b50505050509050919050565b610b926040518060c0016040528060008152602001600081526020016000815260200160008152602001600081526020016000151581525090565b50600090815260046020818152604092839020835160c081018552815481526001820154928101929092526002810154938201939093526003830154606082015290820154608082015260059091015460ff16151560a082015290565b606060026000838152602001908152602001600020805480602002602001604051908101604052809291908181526020016000905b82821015610c9d5760008481526020908190206040805160c08101825260058602909201805483526001808201548486015260028201549284019290925260038101546001600160a01b0381166060850152600160a01b900460ff16151560808401526004015460a08301529083529092019101610c24565b505050509050919050565b610cb061104c565b813414610cff5760405162461bcd60e51b815260206004820152601b60248201527f53656e642065786163742066696e616e63696e6720616d6f756e74000000000060448201526064016104a4565b60008381526003602052604090205460ff1615610d595760405162461bcd60e51b8152602060048201526018602482015277125b9d9bda58d948185b1c9958591e48199a5b985b98d95960421b60448201526064016104a4565b60015460405163484d384560e11b8152600481018590526000918291829182916001600160a01b039091169063909a708a90602401600060405180830381865afa158015610dab573d6000803e3d6000fd5b505050506040513d6000823e601f3d908101601f19168201604052610dd3919081019061132a565b5050509750505050945094505093508015610e2b5760405162461bcd60e51b8152602060048201526018602482015277125b9d9bda58d948185b1c9958591e48199a5b985b98d95960421b60448201526064016104a4565b82861115610e8b5760405162461bcd60e51b815260206004820152602760248201527f43616e6e6f742066696e616e6365206d6f7265207468616e20696e766f69636560448201526608185b5bdd5b9d60ca1b60648201526084016104a4565b428211610ed05760405162461bcd60e51b8152602060048201526013602482015272496e766f69636520616c72656164792064756560681b60448201526064016104a4565b6000878152600260208181526040808420815160c0810183528c81528084018c81528184018c8152336060808501828152608086018b81524260a08801908152885460018082018b55998e528b8e20985160059182029099019889559651888a015594519a87019a909a55516003860180549a511515600160a01b026001600160a81b0319909b166001600160a01b0390921691909117999099179098559051600490930192909255818752845282862080549283018155865294839020018b90558051938452908301899052820187905288917f99d093b7d0c601ec3de7e7cfe7b280d4cb8a333c909e0a53883e5696959aef8f910160405180910390a250505050610fdd6001600055565b505050565b6001600160a01b038116600090815260066020908152604091829020805483518184028101840190945280845260609392830182828015610b4b5760200282019190600052602060002090815481526020019060010190808311610b375750505050509050919050565b60026000540361109e5760405162461bcd60e51b815260206004820152601f60248201527f5265656e7472616e637947756172643a207265656e7472616e742063616c6c0060448201526064016104a4565b6002600055565b6001600160a01b0381168114610ae857600080fd5b600080604083850312156110cd57600080fd5b82356110d8816110a5565b946020939093013593505050565b600080604083850312156110f957600080fd5b50508035926020909101359150565b60006020828403121561111a57600080fd5b5035919050565b60006020828403121561113357600080fd5b813561113e816110a5565b9392505050565b6020808252825182820181905260009190848201906040850190845b8181101561117d57835183529284019291840191600101611161565b50909695505050505050565b602080825282518282018190526000919060409081850190868401855b828110156111ff57815180518552868101518786015285810151868601526060808201516001600160a01b03169086015260808082015115159086015260a0908101519085015260c090930192908501906001016111a6565b5091979650505050505050565b60008060006060848603121561122157600080fd5b505081359360208301359350604090920135919050565b634e487b7160e01b600052603260045260246000fd5b8051611259816110a5565b919050565b634e487b7160e01b600052604160045260246000fd5b600082601f83011261128557600080fd5b815167ffffffffffffffff808211156112a0576112a061125e565b604051601f8301601f19908116603f011681019082821181831017156112c8576112c861125e565b816040528381526020925086838588010111156112e457600080fd5b600091505b8382101561130657858201830151818301840152908201906112e9565b600093810190920192909252949350505050565b8051801515811461125957600080fd5b60008060008060008060008060008060006101608c8e03121561134c57600080fd5b6113558c61124e565b9a5061136360208d0161124e565b995060408c0151985060608c0151975060808c015167ffffffffffffffff81111561138d57600080fd5b6113998e828f01611274565b97505060a08c015167ffffffffffffffff8111156113b657600080fd5b6113c28e828f01611274565b96505060c08c015167ffffffffffffffff8111156113df57600080fd5b6113eb8e828f01611274565b9550506113fa60e08d0161131a565b93506114096101008d0161131a565b92506101208c015191506101408c015190509295989b509295989b9093969950565b634e487b7160e01b600052601160045260246000fd5b818103818111156114545761145461142b565b92915050565b80820281158282048414176114545761145461142b565b60008261148e57634e487b7160e01b600052601260045260246000fd5b500490565b808201808211156114545761145461142b565b6000600182016114b8576114b861142b565b506001019056fea26469706673582212209aedef5dbdcd89d4de94c6f7968d35a0528e738cf72bf25ffbdcea46372b08ed64736f6c63430008140033",
  "linkReferences": {},
  "deployedLinkReferences": {}
}