{
  "_format": "hh-sol-artifact-1",
  "contractName": "InvoiceNFT",
  "sourceName": "contracts/InvoiceNFT.sol",
  "abi": [
    {
      "inputs": [],
      "stateMutability": "nonpayable",
      "type": "constructor"
    },
    {
      "anonymous": false,
      "inputs": [
        {
          "indexed": true,
          "internalType": "address",
          "name": "owner",
          "type": "address"
        },
        {
          "indexed": true,
          "internalType": "address",
          "name": "approved",
          "type": "address"
        },
        {
          "indexed": true,
          "internalType": "uint256",
          "name": "tokenId",
          "type": "uint256"
        }
      ],
      "name": "Approval",
      "type": "event"
    },
    {
      "anonymous": false,
      "inputs": [
        {
          "indexed": true,
          "internalType": "address",
          "name": "owner",
          "type": "address"
        },
        {
          "indexed": true,
          "internalType": "address",
          "name": "operator",
          "type": "address"
        },
        {
          "indexed": false,
          "internalType": "bool",
          "name": "approved",
          "type": "bool"
        }
      ],
      "name": "ApprovalForAll",
      "type": "event"
    },
    {
      "anonymous": false,
      "inputs": [
        {
          "indexed": false,
          "internalType": "uint256",
          "name": "_fromTokenId",
          "type": "uint256"
        },
        {
          "indexed": false,
          "internalType": "uint256",
          "name": "_toTokenId",
          "type": "uint256"
        }
      ],
      "name": "BatchMetadataUpdate",
      "type": "event"
    },
    {
      "anonymous": false,
      "inputs": [
        {
          "indexed": true,
          "internalType": "uint256",
          "name": "tokenId",
          "type": "uint256"
        },
        {
          "indexed": false,
          "internalType": "address",
          "name": "msme",
          "type": "address"
        },
        {
          "indexed": false,
          "internalType": "address",
          "name": "buyer",
          "type": "address"
        },
        {
          "indexed": false,
          "internalType": "uint256",
          "name": "amount",
          "type": "uint256"
        }
      ],
      "name": "InvoiceCreated",
      "type": "event"
    },
    {
      "anonymous": false,
      "inputs": [
        {
          "indexed": true,
          "internalType": "uint256",
          "name": "tokenId",
          "type": "uint256"
        }
      ],
      "name": "InvoiceFinanced",
      "type": "event"
    },
    {
      "anonymous": false,
      "inputs": [
        {
          "indexed": true,
          "internalType": "uint256",
          "name": "tokenId",
          "type": "uint256"
        }
      ],
      "name": "InvoiceSettled",
      "type": "event"
    },
    {
      "anonymous": false,
      "inputs": [
        {
          "indexed": false,
          "internalType": "uint256",
          "name": "_tokenId",
          "type": "uint256"
        }
      ],
      "name": "MetadataUpdate",
      "type": "event"
    },
    {
      "anonymous": false,
      "inputs": [
        {
          "indexed": true,
          "internalType": "address",
          "name": "previousOwner",
          "type": "address"
        },
        {
          "indexed": true,
          "internalType": "address",
          "name": "newOwner",
          "type": "address"
        }
      ],
      "name": "OwnershipTransferred",
      "type": "event"
    },
    {
      "anonymous": false,
      "inputs": [
        {
          "indexed": true,
          "internalType": "address",
          "name": "from",
          "type": "address"
        },
        {
          "indexed": true,
          "internalType": "address",
          "name": "to",
          "type": "address"
        },
        {
          "indexed": true,
          "internalType": "uint256",
          "name": "tokenId",
          "type": "uint256"
        }
      ],
      "name": "Transfer",
      "type": "event"
    },
    {
      "inputs": [
        {
          "internalType": "address",
          "name": "to",
          "type": "address"
        },
        {
          "internalType": "uint256",
          "name": "tokenId",
          "type": "uint256"
        }
      ],
      "name": "approve",
      "outputs": [],
      "stateMutability": "nonpayable",
      "type": "function"
    },
    {
      "inputs": [
        {
          "internalType": "address",
          "name": "owner",
          "type": "address"
        }
      ],
      "name": "balanceOf",
      "outputs": [
        {
          "internalType": "uint256",
          "name": "",
          "type": "uint256"
        }
      ],
      "stateMutability": "view",
      "type": "function"
    },
    {
      "inputs": [
        {
          "internalType": "address",
          "name": "buyerAddress",
          "type": "address"
        },
        {
          "internalType": "uint256",
          "name": "invoiceAmount",
          "type": "uint256"
        },
        {
          "internalType": "uint256",
          "name": "dueDate",
          "type": "uint256"
        },
        {
          "internalType": "string",
          "name": "invoiceDocumentHash",
          "type": "string"
        },
        {
          "internalType": "string",
          "name": "invoiceNumber",
          "type": "string"
        },
        {
          "internalType": "string",
          "name": "description",
          "type": "string"
        },
        {
          "internalType": "uint256",
          "name": "riskScore",
          "type": "uint256"
        }
      ],
      "name": "createInvoice",
      "outputs": [
        {
          "internalType": "uint256",
          "name": "",
          "type": "uint256"
        }
      ],
      "stateMutability": "nonpayable",
      "type": "function"
    },
    {
      "inputs": [
        {
          "internalType": "uint256",
          "name": "tokenId",
          "type": "uint256"
        }
      ],
      "name": "getApproved",
      "outputs": [
        {
          "internalType": "address",
          "name": "",
          "type": "address"
        }
      ],
      "stateMutability": "view",
      "type": "function"
    },
    {
      "inputs": [
        {
          "internalType": "uint256",
          "name": "tokenId",
          "type": "uint256"
        }
      ],
      "name": "getInvoiceDetails",
      "outputs": [
        {
          "internalType": "address",
          "name": "msmeAddress",
          "type": "address"
        },
        {
          "internalType": "address",
          "name": "buyerAddress",
          "type": "address"
        },
        {
          "internalType": "uint256",
          "name": "invoiceAmount",
          "type": "uint256"
        },
        {
          "internalType": "uint256",
          "name": "dueDate",
          "type": "uint256"
        },
        {
          "internalType": "string",
          "name": "invoiceDocumentHash",
          "type": "string"
        },
        {
          "internalType": "string",
          "name": "invoiceNumber",
          "type": "string"
        },
        {
          "internalType": "string",
          "name": "description",
          "type": "string"
        },
        {
          "internalType": "bool",
          "name": "isFinanced",
          "type": "bool"
        },
        {
          "internalType": "bool",
          "name": "isSettled",
          "type": "bool"
        },
        {
          "internalType": "uint256",
          "name": "riskScore",
          "type": "uint256"
        },
        {
          "internalType": "uint256",
          "name": "createdAt",
          "type": "uint256"
        }
      ],
      "stateMutability": "view",
      "type": "function"
    },
    {
      "inputs": [
        {
          "internalType": "address",
          "name": "owner",
          "type": "address"
        },
        {
          "internalType": "address",
          "name": "operator",
          "type": "address"
        }
      ],
      "name": "isApprovedForAll",
      "outputs": [
        {
          "internalType": "bool",
          "name": "",
          "type": "bool"
        }
      ],
      "stateMutability": "view",
      "type": "function"
    },
    {
      "inputs": [
        {
          "internalType": "uint256",
          "name": "tokenId",
          "type": "uint256"
        }
      ],
      "name": "markAsFinanced",
      "outputs": [],
      "stateMutability": "nonpayable",
      "type": "function"
    },
    {
      "inputs": [
        {
          "internalType": "uint256",
          "name": "tokenId",
          "type": "uint256"
        }
      ],
      "name": "markAsSettled",
      "outputs": [],
      "stateMutability": "nonpayable",
      "type": "function"
    },
    {
      "inputs": [],
      "name": "name",
      "outputs": [
        {
          "internalType": "string",
          "name": "",
          "type": "string"
        }
      ],
      "stateMutability": "view",
      "type": "function"
    },
    {
      "inputs": [],
      "name": "owner",
      "outputs": [
        {
          "internalType": "address",
          "name": "",
          "type": "address"
        }
      ],
      "stateMutability": "view",
      "type": "function"
    },
    {
      "inputs": [
        {
          "internalType": "uint256",
          "name": "tokenId",
          "type": "uint256"
        }
      ],
      "name": "ownerOf",
      "outputs": [
        {
          "internalType": "address",
          "name": "",
          "type": "address"
        }
      ],
      "stateMutability": "view",
      "type": "function"
    },
    {
      "inputs": [],
      "name": "renounceOwnership",
      "outputs": [],
      "stateMutability": "nonpayable",
      "type": "function"
    },
    {
      "inputs": [
        {
          "internalType": "address",
          "name": "from",
          "type": "address"
        },
        {
          "internalType": "address",
          "name": "to",
          "type": "address"
        },
        {
          "internalType": "uint256",
          "name": "tokenId",
          "type": "uint256"
        }
      ],
      "name": "safeTransferFrom",
      "outputs": [],
      "stateMutability": "nonpayable",
      "type": "function"
    },
    {
      "inputs": [
        {
          "internalType": "address",
          "name": "from",
          "type": "address"
        },
        {
          "internalType": "address",
          "name": "to",
          "type": "address"
        },
        {
          "internalType": "uint256",
          "name": "tokenId",
          "type": "uint256"
        },
        {
          "internalType": "bytes",
          "name": "data",
          "type": "bytes"
        }
      ],
      "name": "safeTransferFrom",
      "outputs": [],
      "stateMutability": "nonpayable",
      "type": "function"
    },
    {
      "inputs": [
        {
          "internalType": "address",
          "name": "operator",
          "type": "address"
        },
        {
          "internalType": "bool",
          "name": "approved",
          "type": "bool"
        }
      ],
      "name": "setApprovalForAll",
      "outputs": [],
      "stateMutability": "nonpayable",
      "type": "function"
    },
    {
      "inputs": [
        {
          "internalType": "bytes4",
          "name": "interfaceId",
          "type": "bytes4"
        }
      ],
      "name": "supportsInterface",
      "outputs": [
        {
          "internalType": "bool",
          "name": "",
          "type": "bool"
        }
      ],
      "stateMutability": "view",
      "type": "function"
    },
    {
      "inputs": [],
      "name": "symbol",
      "outputs": [
        {
          "internalType": "string",
          "name": "",
          "type": "string"
        }
      ],
      "stateMutability": "view",
      "type": "function"
    },
    {
      "inputs": [
        {
          "internalType": "uint256",
          "name": "tokenId",
          "type": "uint256"
        }
      ],
      "name": "tokenURI",
      "outputs": [
        {
          "internalType": "string",
          "name": "",
          "type": "string"
        }
      ],
      "stateMutability": "view",
      "type": "function"
    },
    {
      "inputs": [],
      "name": "totalSupply",
      "outputs": [
        {
          "internalType": "uint256",
          "name": "",
          "type": "uint256"
        }
      ],
      "stateMutability": "view",
      "type": "function"
    },
    {
      "inputs": [
        {
          "internalType": "address",
          "name": "from",
          "type": "address"
        },
        {
          "internalType": "address",
          "name": "to",
          "type": "address"
        },
        {
          "internalType": "uint256",
          "name": "tokenId",
          "type": "uint256"
        }
      ],
      "name": "transferFrom",
      "outputs": [],
      "stateMutability": "nonpayable",
      "type": "function"
    },
    {
      "inputs": [
        {
          "internalType": "address",
          "name": "newOwner",
          "type": "address"
        }
      ],
      "name": "transferOwnership",
      "outputs": [],
      "stateMutability": "nonpayable",
      "type": "function"
    }
  ],
  "bytecode": "0x60806040523480156200001157600080fd5b506040518060400160405280600a815260200169125b9d9bda58d953919560b21b8152506040518060400160405280600381526020016224a72b60e91b81525081600090816200006291906200018f565b5060016200007182826200018f565b5050506200008e620000886200009460201b60201c565b62000098565b6200025b565b3390565b600780546001600160a01b038381166001600160a01b0319831681179093556040519116919082907f8be0079c531659141344cd1fd0a4f28419497f9722a3daafe3b4186f6b6457e090600090a35050565b634e487b7160e01b600052604160045260246000fd5b600181811c908216806200011557607f821691505b6020821081036200013657634e487b7160e01b600052602260045260246000fd5b50919050565b601f8211156200018a57600081815260208120601f850160051c81016020861015620001655750805b601f850160051c820191505b81811015620001865782815560010162000171565b5050505b505050565b81516001600160401b03811115620001ab57620001ab620000ea565b620001c381620001bc845462000100565b846200013c565b602080601f831160018114620001fb5760008415620001e25750858301515b600019600386901b1c1916600185901b17855562000186565b600085815260208120601f198616915b828110156200022c578886015182559484019460019091019084016200020b565b50858210156200024b5787850151600019600388901b60f8161c191681555b5050505050600190811b01905550565b6121da806200026b6000396000f3fe608060405234801561001057600080fd5b50600436106101375760003560e01c8063715018a6116100b85780639dfad04f1161007c5780639dfad04f1461028c578063a22cb4651461029f578063b88d4fde146102b2578063c87b56dd146102c5578063e985e9c5146102d8578063f2fde38b1461031457600080fd5b8063715018a61461022e57806385f2098a146102365780638da5cb5b14610249578063909a708a1461025a57806395d89b411461028457600080fd5b806323b872dd116100ff57806323b872dd146101cf5780633b7691f3146101e257806342842e0e146101f55780636352211e1461020857806370a082311461021b57600080fd5b806301ffc9a71461013c57806306fdde0314610164578063081812fc14610179578063095ea7b3146101a457806318160ddd146101b9575b600080fd5b61014f61014a366004611a9e565b610327565b60405190151581526020015b60405180910390f35b61016c610338565b60405161015b9190611b0b565b61018c610187366004611b1e565b6103ca565b6040516001600160a01b03909116815260200161015b565b6101b76101b2366004611b53565b6103f1565b005b6101c161050b565b60405190815260200161015b565b6101b76101dd366004611b7d565b61051b565b6101b76101f0366004611b1e565b61054c565b6101b7610203366004611b7d565b61068d565b61018c610216366004611b1e565b6106a8565b6101c1610229366004611bb9565b610708565b6101b761078e565b6101c1610244366004611c80565b6107a2565b6007546001600160a01b031661018c565b61026d610268366004611b1e565b610a2a565b60405161015b9b9a99989796959493929190611d36565b61016c610d30565b6101b761029a366004611b1e565b610d3f565b6101b76102ad366004611dc7565b610e7f565b6101b76102c0366004611e03565b610e8e565b61016c6102d3366004611b1e565b610ec6565b61014f6102e6366004611e7f565b6001600160a01b03918216600090815260056020908152604080832093909416825291909152205460ff1690565b6101b7610322366004611bb9565b610ed1565b600061033282610f4a565b92915050565b60606000805461034790611eb2565b80601f016020809104026020016040519081016040528092919081815260200182805461037390611eb2565b80156103c05780601f10610395576101008083540402835291602001916103c0565b820191906000526020600020905b8154815290600101906020018083116103a357829003601f168201915b5050505050905090565b60006103d582610f6f565b506000908152600460205260409020546001600160a01b031690565b60006103fc826106a8565b9050806001600160a01b0316836001600160a01b03160361046e5760405162461bcd60e51b815260206004820152602160248201527f4552433732313a20617070726f76616c20746f2063757272656e74206f776e656044820152603960f91b60648201526084015b60405180910390fd5b336001600160a01b038216148061048a575061048a81336102e6565b6104fc5760405162461bcd60e51b815260206004820152603d60248201527f4552433732313a20617070726f76652063616c6c6572206973206e6f7420746f60448201527f6b656e206f776e6572206f7220617070726f76656420666f7220616c6c0000006064820152608401610465565b6105068383610fbf565b505050565b600061051660085490565b905090565b610525338261102d565b6105415760405162461bcd60e51b815260040161046590611eec565b6105068383836110ac565b61055581611210565b6105985760405162461bcd60e51b8152602060048201526014602482015273151bdad95b88191bd95cc81b9bdd08195e1a5cdd60621b6044820152606401610465565b60008181526009602052604090206007015460ff166105ec5760405162461bcd60e51b815260206004820152601060248201526f139bdd08199a5b985b98d959081e595d60821b6044820152606401610465565b600081815260096020526040902060070154610100900460ff16156106455760405162461bcd60e51b815260206004820152600f60248201526e105b1c9958591e481cd95d1d1b1959608a1b6044820152606401610465565b600081815260096020526040808220600701805461ff0019166101001790555182917f48ab353d08175051cc8e1484433c8906b600e8dd13e3a07d1abdb6e9a3b65a4e91a250565b61050683838360405180602001604052806000815250610e8e565b6000818152600260205260408120546001600160a01b0316806103325760405162461bcd60e51b8152602060048201526018602482015277115490cdcc8c4e881a5b9d985b1a59081d1bdad95b88125160421b6044820152606401610465565b60006001600160a01b0382166107725760405162461bcd60e51b815260206004820152602960248201527f4552433732313a2061646472657373207a65726f206973206e6f7420612076616044820152683634b21037bbb732b960b91b6064820152608401610465565b506001600160a01b031660009081526003602052604090205490565b61079661122d565b6107a06000611287565b565b60004286116107f35760405162461bcd60e51b815260206004820152601e60248201527f4475652064617465206d75737420626520696e207468652066757475726500006044820152606401610465565b600087116108515760405162461bcd60e51b815260206004820152602560248201527f496e766f69636520616d6f756e74206d75737420626520677265617465722074604482015264068616e20360dc1b6064820152608401610465565b61085f600880546001019055565b600061086a60085490565b905061087633826112d9565b60408051610160810182523381526001600160a01b038b811660208084019182528385018d8152606085018d8152608086018d815260a087018d905260c087018c9052600060e08801819052610100880181905261012088018c905242610140890152898152600990945296909220855181549086166001600160a01b03199182161782559351600182018054919096169416939093179093559151600282015590516003820155915190919060048201906109329082611f87565b5060a082015160058201906109479082611f87565b5060c0820151600682019061095c9082611f87565b5060e08201516007820180546101008086015115150261ff00199315159390931661ffff19909116179190911790556101208201516008820155610140909101516009909101556040516000906109b7908890602001612047565b60405160208183030381529060405290506109d282826112f3565b604080513381526001600160a01b038c1660208201529081018a905282907f88721abb1d35cff296c5d462601d6bdfed57e9493f8c361d2bcc24241a2ebfec9060600160405180910390a25098975050505050505050565b60008060008060608060606000806000806000600960008e8152602001908152602001600020604051806101600160405290816000820160009054906101000a90046001600160a01b03166001600160a01b03166001600160a01b031681526020016001820160009054906101000a90046001600160a01b03166001600160a01b03166001600160a01b031681526020016002820154815260200160038201548152602001600482018054610ade90611eb2565b80601f0160208091040260200160405190810160405280929190818152602001828054610b0a90611eb2565b8015610b575780601f10610b2c57610100808354040283529160200191610b57565b820191906000526020600020905b815481529060010190602001808311610b3a57829003601f168201915b50505050508152602001600582018054610b7090611eb2565b80601f0160208091040260200160405190810160405280929190818152602001828054610b9c90611eb2565b8015610be95780601f10610bbe57610100808354040283529160200191610be9565b820191906000526020600020905b815481529060010190602001808311610bcc57829003601f168201915b50505050508152602001600682018054610c0290611eb2565b80601f0160208091040260200160405190810160405280929190818152602001828054610c2e90611eb2565b8015610c7b5780601f10610c5057610100808354040283529160200191610c7b565b820191906000526020600020905b815481529060010190602001808311610c5e57829003601f168201915b505050505081526020016007820160009054906101000a900460ff161515151581526020016007820160019054906101000a900460ff16151515158152602001600882015481526020016009820154815250509050806000015181602001518260400151836060015184608001518560a001518660c001518760e001518861010001518961012001518a61014001519b509b509b509b509b509b509b509b509b509b509b505091939597999b90929496989a50565b60606001805461034790611eb2565b610d4881611210565b610d8b5760405162461bcd60e51b8152602060048201526014602482015273151bdad95b88191bd95cc81b9bdd08195e1a5cdd60621b6044820152606401610465565b60008181526009602052604090206007015460ff1615610de05760405162461bcd60e51b815260206004820152601060248201526f105b1c9958591e48199a5b985b98d95960821b6044820152606401610465565b600081815260096020526040902060070154610100900460ff1615610e395760405162461bcd60e51b815260206004820152600f60248201526e105b1c9958591e481cd95d1d1b1959608a1b6044820152606401610465565b600081815260096020526040808220600701805460ff191660011790555182917f08ddfa34aed5f4e0a49afe5f1eb90cac42a9a0d0ebe77173f0478d26e3a2ba0691a250565b610e8a3383836113af565b5050565b610e98338361102d565b610eb45760405162461bcd60e51b815260040161046590611eec565b610ec08484848461147d565b50505050565b6060610332826114b0565b610ed961122d565b6001600160a01b038116610f3e5760405162461bcd60e51b815260206004820152602660248201527f4f776e61626c653a206e6577206f776e657220697320746865207a65726f206160448201526564647265737360d01b6064820152608401610465565b610f4781611287565b50565b60006001600160e01b03198216632483248360e11b14806103325750610332826115b8565b610f7881611210565b610f475760405162461bcd60e51b8152602060048201526018602482015277115490cdcc8c4e881a5b9d985b1a59081d1bdad95b88125160421b6044820152606401610465565b600081815260046020526040902080546001600160a01b0319166001600160a01b0384169081179091558190610ff4826106a8565b6001600160a01b03167f8c5be1e5ebec7d5bd14f71427d1e84f3dd0314c0f7b2291e5b200ac8c7c3b92560405160405180910390a45050565b600080611039836106a8565b9050806001600160a01b0316846001600160a01b0316148061108057506001600160a01b0380821660009081526005602090815260408083209388168352929052205460ff165b806110a45750836001600160a01b0316611099846103ca565b6001600160a01b0316145b949350505050565b826001600160a01b03166110bf826106a8565b6001600160a01b0316146110e55760405162461bcd60e51b815260040161046590612084565b6001600160a01b0382166111475760405162461bcd60e51b8152602060048201526024808201527f4552433732313a207472616e7366657220746f20746865207a65726f206164646044820152637265737360e01b6064820152608401610465565b826001600160a01b031661115a826106a8565b6001600160a01b0316146111805760405162461bcd60e51b815260040161046590612084565b600081815260046020908152604080832080546001600160a01b03199081169091556001600160a01b0387811680865260038552838620805460001901905590871680865283862080546001019055868652600290945282852080549092168417909155905184937fddf252ad1be2c89b69c2b068fc378daa952ba7f163c4a11628f55a4df523b3ef91a4505050565b6000908152600260205260409020546001600160a01b0316151590565b6007546001600160a01b031633146107a05760405162461bcd60e51b815260206004820181905260248201527f4f776e61626c653a2063616c6c6572206973206e6f7420746865206f776e65726044820152606401610465565b600780546001600160a01b038381166001600160a01b0319831681179093556040519116919082907f8be0079c531659141344cd1fd0a4f28419497f9722a3daafe3b4186f6b6457e090600090a35050565b610e8a828260405180602001604052806000815250611608565b6112fc82611210565b61135f5760405162461bcd60e51b815260206004820152602e60248201527f45524337323155524953746f726167653a2055524920736574206f66206e6f6e60448201526d32bc34b9ba32b73a103a37b5b2b760911b6064820152608401610465565b60008281526006602052604090206113778282611f87565b506040518281527ff8e1a15aba9398e019f0b49df1a4fde98ee17ae345cb5f6b5e2c27f5033e8ce79060200160405180910390a15050565b816001600160a01b0316836001600160a01b0316036114105760405162461bcd60e51b815260206004820152601960248201527f4552433732313a20617070726f766520746f2063616c6c6572000000000000006044820152606401610465565b6001600160a01b03838116600081815260056020908152604080832094871680845294825291829020805460ff191686151590811790915591519182527f17307eab39ab6107e8899845ad3d59bd9653f200f220920489ca2b5937696c31910160405180910390a3505050565b6114888484846110ac565b6114948484848461163b565b610ec05760405162461bcd60e51b8152600401610465906120c9565b60606114bb82610f6f565b600082815260066020526040812080546114d490611eb2565b80601f016020809104026020016040519081016040528092919081815260200182805461150090611eb2565b801561154d5780601f106115225761010080835404028352916020019161154d565b820191906000526020600020905b81548152906001019060200180831161153057829003601f168201915b50505050509050600061156b60408051602081019091526000815290565b9050805160000361157d575092915050565b8151156115af57808260405160200161159792919061211b565b60405160208183030381529060405292505050919050565b6110a48461173c565b60006001600160e01b031982166380ac58cd60e01b14806115e957506001600160e01b03198216635b5e139f60e01b145b8061033257506301ffc9a760e01b6001600160e01b0319831614610332565b61161283836117b0565b61161f600084848461163b565b6105065760405162461bcd60e51b8152600401610465906120c9565b60006001600160a01b0384163b1561173157604051630a85bd0160e11b81526001600160a01b0385169063150b7a029061167f90339089908890889060040161214a565b6020604051808303816000875af19250505080156116ba575060408051601f3d908101601f191682019092526116b791810190612187565b60015b611717573d8080156116e8576040519150601f19603f3d011682016040523d82523d6000602084013e6116ed565b606091505b50805160000361170f5760405162461bcd60e51b8152600401610465906120c9565b805181602001fd5b6001600160e01b031916630a85bd0160e11b1490506110a4565b506001949350505050565b606061174782610f6f565b600061175e60408051602081019091526000815290565b9050600081511161177e57604051806020016040528060008152506117a9565b806117888461191d565b60405160200161179992919061211b565b6040516020818303038152906040525b9392505050565b6001600160a01b0382166118065760405162461bcd60e51b815260206004820181905260248201527f4552433732313a206d696e7420746f20746865207a65726f20616464726573736044820152606401610465565b61180f81611210565b1561185c5760405162461bcd60e51b815260206004820152601c60248201527f4552433732313a20746f6b656e20616c7265616479206d696e746564000000006044820152606401610465565b61186581611210565b156118b25760405162461bcd60e51b815260206004820152601c60248201527f4552433732313a20746f6b656e20616c7265616479206d696e746564000000006044820152606401610465565b6001600160a01b038216600081815260036020908152604080832080546001019055848352600290915280822080546001600160a01b0319168417905551839291907fddf252ad1be2c89b69c2b068fc378daa952ba7f163c4a11628f55a4df523b3ef908290a45050565b6060600061192a836119b0565b600101905060008167ffffffffffffffff81111561194a5761194a611bd4565b6040519080825280601f01601f191660200182016040528015611974576020820181803683370190505b5090508181016020015b600019016f181899199a1a9b1b9c1cb0b131b232b360811b600a86061a8153600a850494508461197e57509392505050565b60008072184f03e93ff9f4daa797ed6e38ed64bf6a1f0160401b83106119ef5772184f03e93ff9f4daa797ed6e38ed64bf6a1f0160401b830492506040015b6d04ee2d6d415b85acef81000000008310611a1b576d04ee2d6d415b85acef8100000000830492506020015b662386f26fc100008310611a3957662386f26fc10000830492506010015b6305f5e1008310611a51576305f5e100830492506008015b6127108310611a6557612710830492506004015b60648310611a77576064830492506002015b600a83106103325760010192915050565b6001600160e01b031981168114610f4757600080fd5b600060208284031215611ab057600080fd5b81356117a981611a88565b60005b83811015611ad6578181015183820152602001611abe565b50506000910152565b60008151808452611af7816020860160208601611abb565b601f01601f19169290920160200192915050565b6020815260006117a96020830184611adf565b600060208284031215611b3057600080fd5b5035919050565b80356001600160a01b0381168114611b4e57600080fd5b919050565b60008060408385031215611b6657600080fd5b611b6f83611b37565b946020939093013593505050565b600080600060608486031215611b9257600080fd5b611b9b84611b37565b9250611ba960208501611b37565b9150604084013590509250925092565b600060208284031215611bcb57600080fd5b6117a982611b37565b634e487b7160e01b600052604160045260246000fd5b600067ffffffffffffffff80841115611c0557611c05611bd4565b604051601f8501601f19908116603f01168101908282118183101715611c2d57611c2d611bd4565b81604052809350858152868686011115611c4657600080fd5b858560208301376000602087830101525050509392505050565b600082601f830112611c7157600080fd5b6117a983833560208501611bea565b600080600080600080600060e0888a031215611c9b57600080fd5b611ca488611b37565b96506020880135955060408801359450606088013567ffffffffffffffff80821115611ccf57600080fd5b611cdb8b838c01611c60565b955060808a0135915080821115611cf157600080fd5b611cfd8b838c01611c60565b945060a08a0135915080821115611d1357600080fd5b50611d208a828b01611c60565b92505060c0880135905092959891949750929550565b6001600160a01b038c811682528b166020820152604081018a90526060810189905261016060808201819052600090611d718382018b611adf565b905082810360a0840152611d85818a611adf565b905082810360c0840152611d998189611adf565b96151560e0840152505092151561010084015261012083019190915261014090910152979650505050505050565b60008060408385031215611dda57600080fd5b611de383611b37565b915060208301358015158114611df857600080fd5b809150509250929050565b60008060008060808587031215611e1957600080fd5b611e2285611b37565b9350611e3060208601611b37565b925060408501359150606085013567ffffffffffffffff811115611e5357600080fd5b8501601f81018713611e6457600080fd5b611e7387823560208401611bea565b91505092959194509250565b60008060408385031215611e9257600080fd5b611e9b83611b37565b9150611ea960208401611b37565b90509250929050565b600181811c90821680611ec657607f821691505b602082108103611ee657634e487b7160e01b600052602260045260246000fd5b50919050565b6020808252602d908201527f4552433732313a2063616c6c6572206973206e6f7420746f6b656e206f776e6560408201526c1c881bdc88185c1c1c9bdd9959609a1b606082015260800190565b601f82111561050657600081815260208120601f850160051c81016020861015611f605750805b601f850160051c820191505b81811015611f7f57828155600101611f6c565b505050505050565b815167ffffffffffffffff811115611fa157611fa1611bd4565b611fb581611faf8454611eb2565b84611f39565b602080601f831160018114611fea5760008415611fd25750858301515b600019600386901b1c1916600185901b178555611f7f565b600085815260208120601f198616915b8281101561201957888601518255948401946001909101908401611ffa565b50858210156120375787850151600019600388901b60f8161c191681555b5050505050600190811b01905550565b7468747470733a2f2f697066732e696f2f697066732f60581b815260008251612077816015850160208701611abb565b9190910160150192915050565b60208082526025908201527f4552433732313a207472616e736665722066726f6d20696e636f72726563742060408201526437bbb732b960d91b606082015260800190565b60208082526032908201527f4552433732313a207472616e7366657220746f206e6f6e20455243373231526560408201527131b2b4bb32b91034b6b83632b6b2b73a32b960711b606082015260800190565b6000835161212d818460208801611abb565b835190830190612141818360208801611abb565b01949350505050565b6001600160a01b038581168252841660208201526040810183905260806060820181905260009061217d90830184611adf565b9695505050505050565b60006020828403121561219957600080fd5b81516117a981611a8856fea264697066735822122086b7af8958f9b468941faf70c7549a760ef3b299f1322a43aff398b3344475e764736f6c63430008140033",
  "linkReferences": {},
  "deployedLinkReferences": {}
}