{
  "_format": "hh-sol-artifact-1",
  "contractName": "RiskOracle",
  "sourceName": "contracts/RiskOracle.sol",
  "abi": [
    {
      "anonymous": false,
      "inputs": [
        {
          "indexed": true,
          "internalType": "address",
          "name": "msme",
          "type": "address"
        },
        {
          "indexed": false,
          "internalType": "uint256",
          "name": "score",
          "type": "uint256"
        }
      ],
      "name": "RiskScoreUpdated",
      "type": "event"
    },
    {
      "inputs": [
        {
          "internalType": "address",
          "name": "msme",
          "type": "address"
        }
      ],
      "name": "getRiskScore",
      "outputs": [
        {
          "internalType": "uint256",
          "name": "",
          "type": "uint256"
        }
      ],
      "stateMutability": "view",
      "type": "function"
    },
    {
      "inputs": [
        {
          "internalType": "address",
          "name": "",
          "type": "address"
        }
      ],
      "name": "riskScores",
      "outputs": [
        {
          "internalType": "uint256",
          "name": "",
          "type": "uint256"
        }
      ],
      "stateMutability": "view",
      "type": "function"
    },
    {
      "inputs": [
        {
          "internalType": "address",
          "name": "msme",
          "type": "address"
        },
        {
          "internalType": "uint256",
          "name": "score",
          "type": "uint256"
        }
      ],
      "name": "updateRiskScore",
      "outputs": [],
      "stateMutability": "nonpayable",
      "type": "function"
    }
  ],
  "bytecode": "0x608060405234801561001057600080fd5b506101a5806100206000396000f3fe608060405234801561001057600080fd5b50600436106100415760003560e01c80635e5b8752146100465780639ff1192d14610078578063dc08706d1461008d575b600080fd5b610066610054366004610123565b60006020819052908152604090205481565b60405190815260200160405180910390f35b61008b610086366004610145565b6100b6565b005b61006661009b366004610123565b6001600160a01b031660009081526020819052604090205490565b6001600160a01b0382166000818152602081815260409182902084905590518381527f989734652020b9f7aa8a99ab7dc7855f58e3801fa39bd25dc5d83995cbd2464c910160405180910390a25050565b80356001600160a01b038116811461011e57600080fd5b919050565b60006020828403121561013557600080fd5b61013e82610107565b9392505050565b6000806040838503121561015857600080fd5b61016183610107565b94602093909301359350505056fea2646970667358221220ac8fb11fef0c5412de25cd457307544f0386eb663bb6fdf7dd535fdb6b09204064736f6c63430008140033",
  "linkReferences": {},
  "deployedLinkReferences": {}
}